:020000040804EE
:1000000000000824FD400508494105082DA004080A
:1000100033A0040839A004083FA004080000000031
:10002000000000000000000000000000AD290408EE
:100030004941050800000000472A0408572A04081F
:100040004941050849410508494105084941050854
:100050004941050849410508494105084941050844
:100060004941050849410508494105084941050834
:100070004941050849410508494105084941050824
:10008000494105084941050849410508C14D050890
:10009000D14D0508CD4D0508DD4D05084941050840
:1000A00049410508494105084941050849410508F4
:1000B00049410508494105084941050849410508E4
:1000C00049410508494105084941050849410508D4
:1000D00049410508494105084941050849410508C4
:1000E000494105084941050800000000494105084B
:1000F00049410508494105084941050849410508A4
:1001000049410508053E05084941050849410508DA
:100110004941050849410508494105084941050883
:100120004941050849410508494105084941050873
:100130004941050813580408494105084941050883
:100140004941050849410508000000000000000081
:100150004941050849410508494105084941050843
:100160004941050849410508494105084941050833
:1001700049410508494105084941050800000000BA
:100180004941050849410508494105084941050813
:100190004941050849410508494105084941050803
:1001A00049410508494105084941050849410508F3
:1001B00049410508494105084941050849410508E3
:1001C00049410508494105084941050849410508D3
:1001D00049410508494105084941050849410508C3
:1001E00049410508494105084941050849410508B3
:1001F00049410508494105084941050849410508A3
:100200004941050849410508494105084941050892
:100210004941050849410508494105084941050882
:100220004941050849410508494105084941050872
:1002300049410508F94005084941050849410508B3
:100240004941050849410508494105084941050852
:100250004941050849410508494105084941050842
:100260004941050849410508494105084941050832
:100270004941050849410508494105084941050822
:1002800049410508494105084941050800000000A9
:10029000494105084941050810B5054C237833B993
:1002A000044B13B10448AFF300800123237010BD49
:1002B00040180024000000006C45060808B5034BF8
:1002C0001BB103490348AFF3008008BD00000000E4
:1002D000441800246C450608154B002B08BF134B2F
:1002E0009D46A3F5803A00218B460F461348144AD9
:1002F000121A1AF025FE0F4B002B00D098470E4B18
:10030000002B00D098470020002104000D000D486C
:10031000002802D00C480AF043FD1AF011F9200021
:10032000290004F027FD0AF04FFF00BF000008007D
:100330000000082400000000D14C040840180024EC
:10034000F8F60024A1AD04080000000013B5104B1E
:10035000104C1968204602F0A6F80F49204602F01A
:10036000AFF80E49204602F0ABF80D49204602F0E6
:100370009AF802230022204600930A4B02F068F903
:10038000094B2046196802B0BDE8104002F08BB856
:1003900004000024601E00248C010608AB0106083E
:1003A000CC0106080000F03F0C00002410B50A4BF9
:1003B0000A4C1968204602F076F80949204602F0F6
:1003C0007FF84FF47A7002F0B9F9064B20461968AD
:1003D000BDE8104002F067B808000024601E002449
:1003E000DD0106080C000024FFF7E0BF08B54FF45C
:1003F0001651074800F0A6FC054800F0DDFA002879
:10040000FAD004490248BDE8084002F059B800BFDC
:10041000601E00242002060813B5094CFFF7E6FF12
:100420000849204602F03FF80223002220460093AC
:10043000054B02F00DF902B0BDE81040FFF786BF92
:10044000601E00243F0206080000F03F00207047B5
:100450000020704730B5A1F11004002500F00F0214
:10046000CD7302390009D3B2092ACCBF37333033F8
:100470000B748C42F2D130BD2DE9FF470024061DDC
:1004800005468A4690469946009423464FF0FF322F
:10049000B1213046CDE9014406F09CFA296828468E
:1004A000DDE90C23CDE9002342464F694B46514616
:1004B000B847009423464FF0FF32C1213046CDE9C2
:1004C000014406F087FA204604B0BDE8F0872DE924
:1004D000D04F9B460368924604469B6ADDE9088933
:1004E000984702460B465046594617F0CFFF134334
:1004F00002D00020BDE8D08F236820469B6A984731
:1005000002460B464046494617F0C0FF1343F0D160
:100510001AEB0806236820464BEB09079B6B9847AC
:10052000B94208BFB0422CBF01200020E2E70168B9
:100530002DE9F04114461D46096B064688470246E0
:100540000B462046294617F0A1FF134302D0002096
:10055000BDE8F081DDE906233046A71845EB030826
:1005600017F1FF323368196B48F1FF3388470246B1
:100570000B463846414617F089FF1343E7D13368ED
:1005800030469B6B9847414508BFB8422CBF0120BD
:100590000020DDE72DE9D04F9B46036892460446D4
:1005A0005B6ADDE90889984702460B465046594682
:1005B00017F06CFF134302D00020BDE8D08F2368F2
:1005C00020465B6A984702460B464046494617F06C
:1005D0005DFF1343F0D11AEB0806236820464BEB6E
:1005E00009079B6B9847B94208BFB0422CBF012056
:1005F0000020E2E7C3680BB19B6818477047C22030
:1006000070470000244830B5037887B0BFF35B8F94
:1006100013F001041CD10AF0D1FBC8B11F4B6622B4
:100620003B211F48CDE903435A23CDE901323D2345
:100630003C22009357230CF053FB194C194B1648DE
:1006400023600AF0DDFB184A204618490AF0A6FB91
:1006500013480CF07FFD164D1A220023294610483E
:10066000CDE9002300230022FFF706FF2B78044684
:10067000B52B04D10F4B01221D600F4B1A70084897
:100680000CF0C4FBB4FA84F0400907B030BD024856
:100690000AF0BEFD17F058FB80180024005A6202D1
:1006A000881800245C020608000000246908040879
:1006B000901A0024100000248418002410B5044669
:1006C0000DF0E4F92146FFF7C5FE0DF0E5F904F160
:1006D0001001FFF7BFFE0DF0E5F904F12001FFF76F
:1006E000B9FE302010BD000008B54DF6597200214A
:1006F000074812F00FF9BFF34F8F0649064BCA683F
:1007000002F4E0621343CB60BFF34F8F00BFFDE7FD
:100710005C18002400ED00E00400FA0510B5044662
:10072000FFF768FF204610BD064B10B50446036076
:10073000806A08B109F056F9201DFFF7EFFF204647
:1007400010BD00BFB00E060800B5C3B016221721B9
:1007500003A805F0A3FF4FF4A17302AA1021ADF87E
:100760000830002303A80093022305F0E2FE03A84B
:10077000FFF7DAFF43B05DF804FB03A8FFF7D4FFEF
:1007800017F0E2FA1D4B01211D4AA62070B51A6030
:1007900002F05EF80121A62002F0DAF8FFF7D4FF9C
:1007A000184B43F2D2021A60FFF72CFF164B1B784E
:1007B00033B1164B1B689A8840F209439A421BD802
:1007C000134B9B6D03F46043B3F5004F14D001F05D
:1007D00097FF104D044601F0A5FF064601F0A2FF69
:1007E000801BA842FAD901F08BFF001B642803D0BC
:1007F000BDE8704015F00CBB70BD00BF5C18002454
:1008000000400058004000528418002410000024CA
:10081000004402589F86010010B50446FFF784FF8C
:10082000FC2120460AF040FD204610BD38B5074B9C
:100830000546044645F8BC3B0CF0E8FA28460AF0A9
:1008400053FF201D06F006F9204638BD5C2C060833
:1008500010B50446FFF7EAFF4FF4027120460AF094
:1008600023FD204610BD0000034B10B50446036075
:10087000FFF7DCFF204610BD5C02060810B50446F9
:10088000FFF7F2FF4FF4027120460AF00DFD2046FB
:1008900010BD70470B6803604B6843608B688360D2
:1008A000704710B50446FFF7A5FE204610BD002096
:1008B000704770B590F8383105461446F3B90368AF
:1008C000DB69984704F4706304F00F02B3F5407FCE
:1008D00004F0F0030CBF07210821302B0CBF0223CA
:1008E0000123012A08D0901E42424241A869BDE876
:1008F0007040006806F07AB90222F7E770BD10B5C3
:1009000090F8383104462BB9A369186806F0B2F99B
:100910000028F9D010BD38B590F838510446A5B973
:1009200083695BB1186848B10368DB689847A369BD
:1009300004211D60A0690AF0B7FCA5610023C4F87A
:100940002831C4F82C31C4F8303138BD13B590F8D3
:10095000383104466BBBA369186806F05FF940B3F1
:1009600009F03CFEA36901220DF107011868036834
:100970005B699847D4F83031B3F5807F16D0D4F84E
:100980003031B3F5807F11D0D4F828319DF807209D
:10099000234483F82820D4F828310133DBB2C4F88B
:1009A0002831D4F830310133C4F8303109F02CFE4D
:1009B000D1E702B010BD000008B590F838313BB166
:1009C000012001F0BBFE0648BDE8084001F065BA11
:1009D00082691AB11368003318BF0123184608BD95
:1009E0003025002470B504460D4601F056FA30B1AA
:1009F0002368294620461B6CBDE87040184770BD2F
:100A0000A0F59860EEE7000013B590F83831044681
:100A10008DF807102BB1C9B20B48FFF7E3FF02B006
:100A200010BDA369186806F025F90028F9D0A3695C
:100A300001220DF10701186803681B69984701300E
:100A400018BF0120EBE700BF302500242DE9F0415D
:100A500007468846164601F020FA80B10024A642D7
:100A60000ED9351B08EB04013846B5F5007F28BFC9
:100A70004FF400752A462C4400F048FFEFE7044687
:100A80002046BDE8F081A0F59860DFE770B590F8EA
:100A9000383105460E4614462BB10F48FFF7D6FFF6
:100AA0000446204670BDAB69186806F0E3F80028DC
:100AB000F9D0AB6901211868D0F8883088301B6BF9
:100AC0009847AB6922463146186803681B69984706
:100AD000013008BF0024E4E73025002430B5044687
:100AE000C3B001F0C5F90546D4F8D835C3F5807315
:100AF000984203DDD4F8D855C5F580752A4601AB78
:100B000002A9204600F0F9FF019902AB00226D1AFC
:100B10001D44D4F8D835B3F5807F19D08A4217D058
:100B2000D4F8D835B3F5807F10D0D4F8D035A85C90
:100B3000234483F8D004D4F8D0350133DBB2C4F8B1
:100B4000D035D4F8D8350133C4F8D8350132E0E7D0
:100B500043B030BD38B5044600F0BCFB2046FFF77B
:100B6000BDFFD4F8D855204600F0BCFB284638BD60
:100B7000A0F59860EEE7000010B590F83831044613
:100B80002BB10648FFF7E6FF0446204610BD09F0EA
:100B900025FDD4F8304109F037FDF6E73025002473
:100BA00038B5044600F096FB2046FFF797FFD4F8CF
:100BB000D8354BB1D4F8D435234493F8D0542046DB
:100BC00000F090FB284638BD4FF0FF35F7E7A0F561
:100BD0009860E5E710B590F8383104462BB10B4822
:100BE000FFF7DEFF0446204610BD09F0F7FCD4F8FD
:100BF00030313BB1D4F82C01044494F8284009F07A
:100C000003FDF0E74FF0FF34F9E700BF3025002483
:100C100038B5044600F05EFB2046FFF75FFFD4F8CE
:100C2000D835A3B1D4F8D435234493F8D054D4F8AC
:100C3000D4350133DBB2C4F8D435D4F8D835013B10
:100C4000C4F8D835204600F04DFB284638BD4FF09B
:100C5000FF35F7E7A0F59860DAE7000010B590F8E7
:100C6000383104462BB11148FFF7D2FF0446204625
:100C700010BD09F0B3FCD4F830319BB1D4F82C315D
:100C8000234493F82800D4F82C310133DBB2C4F8A4
:100C90002C31D4F83031013BC4F83031044609F02E
:100CA000B3FCE4E74FF0FF34F9E700BF3025002440
:100CB00008B54FF4807200211AF042F90022C0F802
:100CC0000021C0F80421C0F8082108BD10B4D0E903
:100CD000003409686210E4075DF8044B01EB020080
:100CE00044BF8A58D35818470146043008B5FFF767
:100CF000EDFF08BD034A0346C26007C983E8070049
:100D0000704700BFAC02060810B586B004460391D8
:100D1000684606A980E80C0001E90C00204603A9FA
:100D2000FFF7E8FF204606B010BD37B56C46054614
:100D300084E80C0094E80C00FFF7E6FF284603B0B7
:100D400030BD000070B590F8383186B004460E46CC
:100D5000002B3BD1856925B904200AF071FAA06106
:100D60000560A369186850BB8C200AF069FA334605
:100D7000B4F922200546B4F9201006F063FAA369FD
:100D80001D60B4F92420531C06D0A0690321B4F9D6
:100D90002630006806F066FAA3691D68B5B1114BEC
:100DA0000026214602A800936B4601960CCBFFF764
:100DB000BCFF324602A9284605F0CAFF03E03146CF
:100DC00005F001FFDDE702A8FFF76BFD06B070BD7F
:100DD0008C2128460AF068FA16F0B6FF02A8FFF741
:100DE00060FDF9E74D09040808B5FFF77DFF08BD70
:100DF00008B5FFF7F9FF08BD2DE9F84300242D4D94
:100E00004FF47A782C4F202605F128002F60EC61F2
:100E1000C5E90148C5E90564FFF74AFF01230E2033
:100E200085F8383101F052FC244D81460D2001F047
:100E30004DFCA5F820904FF6FF79688405F1280055
:100E40002F60EC61A5F82490A5F82690C5E901482B
:100E5000C5E90564FFF72CFF85F838410F23184DCD
:100E60002B84562305F128002F606B845823EC61F6
:100E7000AB845923C5E90148EB84C5E90564FFF754
:100E800017FF85F8384198230E4D2B84992305F1DF
:100E900028002F60EC616B84A5F82490A5F82690BB
:100EA000C5E90148C5E90564FFF702FF85F8384147
:100EB000BDE8F883601E0024C0020608AC1A0024B6
:100EC000E81B0024241D0024002070477047704751
:100ED00010B5D0F88C452CB123682046DB6A9847C2
:100EE000A468F8E710BD38B50D46D0F88C4534B18C
:100EF000236820462946DB689847A468F7E738BD91
:100F00000048704780030608054B10B5044603608F
:100F100007F01DFC204607F02BFD204610BD00BF4A
:100F20000003060810B50446FFF7EEFF4FF4B26168
:100F300020460AF0B9F9204610BDF7B50023054652
:100F40000E46D0F88C45A4B1236831460DF103025A
:100F500020461F6901ABB8479DF8031003460429DA
:100F600005D0019A284606F001FF03B0F0BDA46841
:100F7000E9E7019A9DF80310F4E770B505460E46BF
:100F800022B10021BDE8704006F0FCBCD0F88C45D1
:100F90005CB123680022314620465B69984710B156
:100FA00001212846EEE7A468F2E72146F9E770B58B
:100FB0000E460546D0F88C4500213CB123683146E9
:100FC00020469B699847A4680146F6E72846BDE895
:100FD000704006F0CBBDF8B505460E461746D0F872
:100FE0008C453CB1236820463A463146DB69984738
:100FF000A468F6E728460121BDE8F84006F014BED3
:1010000070B5002186B0044606F0FBFF00234FF4C4
:101010008975A188EF26ADF806302389ADF8045014
:1010200002258DF810301B0AE2888DF8113040F24D
:1010300001238DF80750ADF8123040F203138DF8FC
:1010400009500125ADF8143004F10A038DF8086049
:1010500005AE8DF80A501C468DF80C1001AD090A3A
:101060008DF80E20120A8DF80B008DF80D108DF8FA
:101070000F202A46083303CAB24243F8080C43F84B
:10108000041C1546F5D1128820461A8006B070BDA2
:10109000F8B5002406460D46274630461AF030FCC7
:1010A000A04207D9335D05F8143005EB4403013441
:1010B0005F70F2E7400000F0FE00F8BD38B504466E
:1010C000D0F88C5535B12B6828465B6A984710B923
:1010D000AD68F7E7284640F2023304F24A51A4F81B
:1010E0004835FFF7D5FF94F84835184484F848058B
:1010F00004F5A96038BD000040F2023300F20A5145
:1011000010B50446A0F808350548FFF7C1FF94F86C
:101110000835184484F8080504F5A16010BD00BF27
:10112000EC02060840F2023310B50446A0F8C834B9
:1011300000F2CA40FFF7C2FA94F8C834184484F8A1
:10114000C80404F5996010BD2DE9FF4100231D4A34
:10115000044600F54E788DF80A30092590F8883558
:101160000192FA228DF8083001238DF80C208DF8B9
:101170000930C0238DF80B3001AB03CBC4F8380322
:10118000C8F8041088F80820D4F88C658EB133684C
:10119000002130469B689847478805F54E7300F15B
:1011A0000901093FE0183A463D4419F0CBFDB66805
:1011B000ECE784F83A5340462D1284F83B5304B0D0
:1011C000BDE8F0810902FFFF73B504460D461646DF
:1011D00013F066FD4FF4807301462A4620460093C3
:1011E000334607F081FB024B2046236002B070BDFE
:1011F0000003060810B5D0F88C350446A3B9C0F832
:101200008C1594F8883508464A790B7194F888351E
:10121000134484F888350B689B6A984723891844DF
:101220002081012010BD13469A68002AFBD19960E5
:10123000E7E71FB5044606F0DFFE0146684606F004
:10124000D9F84021684606F047F9D4F88C4534B106
:101250002368694620461B6A9847A468F7E76846F2
:1012600006F0CFF804B010BD684606F0CAF816F0D4
:101270006BFD10B50446FFF7DCFF2046BDE81040CB
:1012800006F0A1BE0F4808B50378BFF35B8FDB07FC
:1012900011D409F093FD70B140F25B2242F241316A
:1012A0000948FFF791FF074809F0AAFD074A0849D6
:1012B000054809F073FD044808BD024809F0A8FF7D
:1012C00016F042FD9C1F0024A01F002400000024F3
:1012D000090F040810B5FFF7D5FF0368BDE81040FB
:1012E0005B6F184710B5FFF7CDFF0368BDE81040EE
:1012F0009B6F184710B5FFF7C5FF0368BDE81040A6
:10130000DB6F184706F01EBA06F032BA06F00ABACA
:10131000704770477047436A93F878007047D0F879
:10132000A40470470120704700487047EC04060889
:101330002DE9F04794B004460F464B22002101A846
:1013400019F0FEFD2679D4F8A434751C94F80E909B
:10135000002B94F80C80EDB294F80DE014BF05203A
:101360000020002F40F0938040F2092309218DF8DE
:101370001D0042F20540ADF804304FF481738DF842
:1013800015100121ADF808308023ADF81E001020A3
:101390008DF80B3032234FF0040A24278DF80C30DF
:1013A00008234FF0030C4B228DF80D300B238DF8E2
:1013B00019101D348DF80E3040F202238DF81C10E8
:1013C000ADF8103002238DF8210005208DF8221091
:1013D0008DF825108DF8271006218DF806208DF840
:1013E0000F608DF812308DF817608DF81A308DF877
:1013F0001B308DF823008DF826C08DF82A308DF82B
:101400002B108DF82C008DF816A08DF824708DF817
:1014100028A08DF829708DF82D708DF82E100721D9
:101420008DF82F6041F202068DF831108DF84110D1
:1014300040F207518DF83050ADF8366040F2094661
:101440008DF83A5040F602258DF832008DF84200B2
:101450002046ADF848100DEB0A018DF833908DF859
:1014600034C0ADF83860ADF83C508DF843808DF84D
:1014700044308DF846308DF84AE08DF84B308DF8C9
:101480004D3019F05FFC204614B0BDE8F087002015
:10149000FAE700000A4B10B504460360FFF7F2FEBE
:1014A00007F055F904F5247006F0B0F804F17C005B
:1014B00006F0ACF804F1700006F0A8F8204610BD64
:1014C000AC04060810B50446FFF7E4FF4FF495613D
:1014D000204609F0E9FE204610BDFFF70BBF0000D3
:1014E000034B10B50446036005F04CFF204610BDC9
:1014F000C803060810B50446FFF7F2FF282120466E
:1015000009F0D2FE204610BD034B10B5044603601F
:1015100005F038FF204610BD9803060810B50446B4
:10152000FFF7F2FF3421204609F0BEFE204610BD31
:10153000034B10B50446036005F024FF204610BDA0
:10154000B003060810B50446FFF7F2FF3821204625
:1015500009F0AAFE204610BD38B51E4B0D460446C4
:101560004FF400721968C0F80F1099889B79A0F8A1
:10157000131002214375284605F0A4FF4FF40072B2
:1015800020730221284605F0A2FF4FF40072607319
:101590000321284605F096FFA073284605F032FF88
:1015A00020B9AF220C490D4808F020FF04F1850254
:1015B0000023C4F8882204F2992284F8783084F851
:1015C0008430C4F88C3284F89832C4F89C24C4F86F
:1015D000A03438BDE4030608870406089204060810
:1015E0002DE9F34104460E461546FFF783FEF288C7
:1015F00023799A4237D1002D35D17778012F2ED11A
:10160000F378202B27D13289072A24D104F10F083F
:1016100004F116054046294619F062FBD0B1D4F812
:101620001630C4F80F30638B207CE17BA4F81330B4
:1016300001EB0021E57C607C237F01EB00410095FC
:10164000A07C2568637501EB0061237D2046627DE7
:101650006D6BA8473D46F378212B08BF012528462E
:1016600002B0BDE8F0810025F9E710B50446FFF7A8
:1016700041FEFFF707FE217B06F006FF04F185031C
:1016800004F17C00C4F888320023C4F88C3284F85A
:10169000843005F070FF94F884302BB9236820461D
:1016A000DB6BBDE81040184710BD000070B5044664
:1016B000FFF720FED4F8A0542DB140F2DD120F49FF
:1016C0000F4808F093FE04F29923C4F89C34FFF706
:1016D000D9FD617B06F036FE84F89852C4F8A00468
:1016E00004F5247005F047FF94F898322BB923686D
:1016F00020469B6BBDE87040184770BD8704060804
:10170000F00306080022C2607047000002232DE9A2
:10171000F041437100230446054683609046144B14
:1017200004F17C0645F8703B284605F017FF30466B
:1017300005F014FF04F52477384605F00FFFC4F8D0
:10174000A484FFF79FFD2146FFF754FD0CE03846C7
:1017500005F05CFF304605F059FF284605F056FFBE
:1017600016F0F2FAF6E7F8E72046BDE8F08100BF90
:10177000AC04060870B504460D46FFF7BBFD84F8BF
:101780007850002D3ED194F8843033B1FFF77AFDC4
:10179000217B06F051FC84F8845004F1850304F1A8
:1017A0007C0600253046C4F88832C4F88C5205F017
:1017B000E2FE304605F0D8FE28B94FF4A272144973
:1017C000144808F013FE94F8983233B1FFF75AFD2D
:1017D000217B06F031FC84F8985204F2992304F539
:1017E0002475C4F89C3400232846C4F8A03405F0BE
:1017F000C2FE284605F0B8FE20B94FF4A77204498E
:101800000548DEE704F17000BDE8704005F0B3BEA6
:1018100087040608FE0306080F04060810B50446F0
:10182000FFF768FD00212046BDE81040FFF7A2BF8A
:1018300038B50D460446FFF75DFD042D05D0204662
:101840000021BDE83840FFF795BF38BDF8B5164612
:1018500004460D461F46FFF74DFD0423EA8833700A
:1018600023799A4225D16978012922D1EA78212A5F
:1018700008D0222A0BD0202A4FF000001BD1307054
:10188000163401E00F34317007203C60F8BDAB889E
:10189000204613F0010308BF1946FFF76BFFAB8822
:1018A00003F00103E366AB8803F00203A36602239F
:1018B00033700020EAE703233370E7E710B58AB0FE
:1018C0000446FFF707FD684605F04CFD0D4B6946E1
:1018D00004F170000093099405F065FE2046FFF7BF
:1018E00001FD094B002168461A6805F001FD6846B4
:1018F000FFF7F6FD0AB010BD6846FFF7F1FD16F0E0
:1019000023FA00BFC8030608EC03060870B58EB0C2
:1019100004460E461546FFF7DDFC01A805F022FD42
:10192000114B01A904F17C00019300230C958DF863
:101930003430CDE90A4605F036FE2046FFF7D2FCEA
:101940000A4B002101A81A6805F0D2FC04E001A8A6
:10195000FFF7DAFD16F0F8F99DF8344001A8FFF71B
:10196000D3FD20460EB070BD98030608EC030608B0
:1019700010B50446FFF7BEFC94F884307BB9D4F868
:101980008C3263B1FFF77EFCD4F88C3204F185020F
:10199000217B06F017FD10B1012384F8843010BDBF
:1019A0002DE9F8431E460446894690469DF820706E
:1019B000FFF790FC0023336094F87830E3B194F89B
:1019C0008430CBB9D4F88C52C5F50075454528BF95
:1019D0004546B8F1000F05D02A464946D4F888029A
:1019E00019F0B0F9D4F88C322B44C4F88C3235603D
:1019F00017B12046FFF7BCFF2046BDE8F843FFF7CC
:101A000071BCF0B50446406A85B0012690F8785064
:101A10002DB984F830503546284605B0F0BD04ABEA
:101A20000027D4E90A1243F8047D0096FFF7B8FFB7
:101A30000399E36AA26A5B1A0A44E362A26213B9D9
:101A400084F83060E8E7606A3D46FFF791FFE3E71E
:101A50002DE9F0431C4691B0054689469046FFF7B4
:101A600039FC002C4FF0000602A806BF01AC01278C
:101A70000027266005F076FC134B02A905F52470BB
:101A800002938DF83C708DF83D60CDE90B59CDE99E
:101A90000D8405F088FD2846FFF724FC0B4B3146EA
:101AA00002A81A6805F024FC04E002A8FFF740FD34
:101AB00016F04AF99DF83D4002A8FFF739FD20468F
:101AC00011B0BDE8F08300BFB0030608EC030608C0
:101AD00010B5D0F8A034044673B990F898325BB9C9
:101AE000FFF7D0FB4FF4007304F29922617B06F0FC
:101AF000CBFB012384F8983210BD70B504461E4616
:101B000000230846336094F87830EBB194F89832AB
:101B1000D3B9D4F8A054D4F89C14954228BF1546E4
:101B20002A4619F00FF93560D4F89C34D4F8A02473
:101B30002B44551BC4F89C34C4F8A05425B9204646
:101B4000BDE87040FFF7C4BF70BD37B50446406ABA
:101B500090F878502DB984F835500125284603B007
:101B600030BD02AB002243F8042DD4E90A12FFF77E
:101B7000C4FF0199A26A0A44A262226B13680B4453
:101B800013600199E36A5B1A94F83410E36209B9AF
:101B9000126802B91BB9012384F83530DEE7606AA8
:101BA0000025FFF795FFD9E710B504460021FFF7A0
:101BB000A9FD204610BD10B50446FFF7F5FF2046ED
:101BC00010BD10B4D0E9003409686210E4075DF874
:101BD000044B01EB020044BF8A58D3581847014612
:101BE000043008B5FFF7EDFF08BD0000034A0346C7
:101BF000C26007C983E80700704700BFD803060822
:101C000010B586B004460391684606A980E80C002A
:101C100001E90C00204603A9FFF7E8FF204606B0C3
:101C200010BD37B56C46054684E80C0094E80C00FE
:101C3000FFF7E6FF284603B030BD0000F0B58BB0DB
:101C40000546FFF757FB06ACFFF71CFBAF7B0646CC
:101C500000212046FFF7AFFF009403234FF40072EA
:101C60003946304606F0D6FD2046FEF71AFEFFF74D
:101C700009FB234B06462F7B02930023294620466F
:101C8000039302AB0CCBFFF7CCFF009402234FF47D
:101C900000723946304606F0BDFD2046FEF701FED3
:101CA000FFF7F0FA174B06466F7B04930023294693
:101CB0002046059304AB0CCBFFF7B3FF009402233F
:101CC0004FF400723946304606F0A4FD06E0204687
:101CD000FEF7E7FD16F038F8F9E7F8E72046FEF7DB
:101CE000E0FDFFF7CFFA4FF40073D5F89C24697B31
:101CF00006F0CAFA012085F898020BB0F0BD00BFCB
:101D00006B160408AD16040808B5FFF768FF08BD98
:101D100008B5FFF7F9FF08BD6FF0150070470029FF
:101D20000CBF6FF0180000207047012070476FF063
:101D3000150070476FF0150070471120704770470D
:101D40007047704703689B6C1847A0F59860F9E7E7
:101D5000704770477047704710B50446012000F087
:101D6000EDFC94F8780010BDA0F59860F4E7000051
:101D700038B54FF0FF320123FF210B4809F032FC48
:101D80000A4D00F0BDFC044695F878301BB10120E7
:101D900000F0D4FCF8E700F0B3FC001BC728F6D92C
:101DA000BDE83840FEF7A0BC682B00243025002495
:101DB00007B502AB012243F8041D1946FFF7A6FD43
:101DC00018B1019803B05DF804FB4FF0FF30F9E75C
:101DD000A0F59560FFF7ECBF07B5002302A901222B
:101DE00001F8013DFFF734FE20B19DF8070003B074
:101DF0005DF804FB4FF0FF30F9E7A0F59560FFF7C1
:101E0000EBBF2DE9F8430446884617461E46089D59
:101E1000FFF770FAD4F8F095B9F1000F04D02B4613
:101E2000324639464046C847C4F8E085C4F8E475F0
:101E3000C4F8E865C4F8EC55BDE8F883B0F5966FD2
:101E400003D10121014809F0AFBB7047682B002482
:101E5000006870470C30704708B5FFF7FBFF0023A0
:101E6000036008BDCB68C3600BB15B68184770475F
:101E700038B50546FFF72EFA95F898325BB9D5F8D4
:101E8000A044B4F5007F28BF4FF400742846FFF744
:101E900029FA204638BD0024F8E790F8780070470A
:101EA000114B03F1780270B503600446C0F8A82412
:101EB00000F2F45603F1D80200F23465E833C0F8BA
:101EC000AC24C0F8C034AE4204D0103D2846FEF722
:101ED000E8FCF8E704F5956007F00AFF2046FFF7F5
:101EE000D9FA204670BD00BFC4050608A0F595606C
:101EF000FFF7D6BFA0F2AC40FFF7D2BF10B5044643
:101F0000FFF7CEFF4FF4C761204609F0CDF9204618
:101F100010BDA0F2AC40FFF7F1BFA0F59560FFF750
:101F2000EDBF00002DE9F74304461E4688461546DE
:101F300012F0B6FEBDF82C3004F59567014601930A
:101F40002A46BDF82830204600933346FFF7DEFBD3
:101F50000021384607F0A2FE4FF47A73002504F200
:101F6000F45904F59A60C4F8C8342946204B4E460B
:101F7000C4F8C45403F178022360C4F8A82403F120
:101F8000D802E833C4F8AC244FF48072C4F8C034EB
:101F900018F0D6FFC4F8D055C4F8D455C4F8D855B5
:101FA00004F2346530461036FFF7FEFDB542F9D134
:101FB0000023C4F83436C4F8F035B8F1000F13D05C
:101FC0002046FFF77BFC0FE04D4504D0103D28462E
:101FD000FEF767FCF8E7384607F08AFE2046FFF771
:101FE00059FA15F0B1FEF9E7204603B0BDE8F083D9
:101FF000C4050608884238B5044606D00D46FEF7EB
:10200000F9FA20462946FFF72DFF204638BD08B5CE
:10201000FFF720FF0068003018BF012008BD000056
:1020200010B50446FFF7F3FF28B940F20222064933
:10203000064808F0DBF9E068FFF70AFF0346204690
:10204000BDE81040184700BFA5050608B005060802
:10205000F8B506460025FFF74DF906F2F454D6F818
:102060003436AB420AD920462746FFF7D0FF10345A
:1020700020B138460135FFF7D3FFF0E7F8BD000087
:10208000044BC36003460A6843F8042B00224260F5
:102090005A6070471005060813B50446019121B92E
:1020A000FFF7DAFE204602B010BD01A9FFF7E8FFF6
:1020B000F8E710B4D0E9003409686210E4075DF86D
:1020C000044B01EB020044BF8A58D358184701461D
:1020D000043008B5FFF7EDFF08BD0000034A0346D2
:1020E000C26007C983E80700704700BF04050608FF
:1020F00010B586B004460391684606A980E80C0036
:1021000001E90C00204603A9FFF7E8FF204606B0CE
:1021100010BD37B56C46054684E80C0094E80C0009
:10212000FFF7E6FF284603B030BD00002DE9F0417F
:1021300088B00446FFF7CEF8384B2046C4F8F03597
:10214000FFF7D0F8364B04A82146029300230393EF
:1021500002AB0CCBFFF7DDFF2046FFF7BBF8D4F84E
:102160003406032803D92046FFF7BCF80AE0431CD5
:1021700004EB001004A9C4F8343600F2F450FFF761
:1021800039FFF0E704A8FEF78CFBBC2009F058F8F3
:1021900005460646234B05F1400746F8043B30460A
:1021A000FFF702FD0021384609F0C0FA05F1540896
:1021B000404609F059FA1C4B4FF48072182128460A
:1021C0000093002309F02AFB184904A8C4F8DC5541
:1021D000FFF762FF04A9284609F0B8FB10E040466B
:1021E00009F082FA384609F0CAFA3046FEF759FB80
:1021F000BC21284609F058F815F0A6FDF2E7F4E7EF
:1022000004A8FEF74EFB2046FEF768FC08B0BDE8C8
:10221000F08104A8FEF745FBEEE7FAE73D1E04084F
:10222000DD0A04082C2006081C050608711D040898
:10223000A0F59860FFF77ABF0368184708B5FFF765
:10224000FBFF08BD08B5FFF742FF08BD08B5FFF763
:10225000F9FF08BD37B50F4C0F4D204609F094F932
:102260002A460E49204608F099FD42F21203012247
:102270000B4CCDE9003200224FF4F85320461146B2
:10228000FFF750FE2A460749204603B0BDE830401C
:1022900008F084BD682B002400000024AFB50408BA
:1022A00030250024A11E040808B517F0F5F92DE922
:1022B000F04F027D85B005460E46012A40F08E8023
:1022C00000214FF0FF3B04460B465F4694F804C0E4
:1022D00048B2BCF1000F73D194F805C0BCF1000FF7
:1022E0006ED1B7F1FF3F17BF0133012338465BB210
:1022F000934201DD1A4683460131023408295DD13B
:10230000002402EB0B03A1460293CB4502DC029BA7
:102310004B4558DC95F8058095F804A04FEA28173E
:1023200008F00F080AF00F035FEA2A1AFAB20192C6
:102330006FD05FFA8AF1BAF1090F30460393D4BF28
:102340003031573100F0B3F8039B0444092B304679
:10235000039394BF03F1300103F1570100F0A7F894
:102360000444BAF1000F02D1039B03B94FB1092F06
:10237000019F3046D4BF30375737F9B200F097F895
:102380000444B8F1090F304694BF08F1300108F158
:10239000570100F08CF8B9F1070F044404D03A213A
:1023A000304600F084F8044409F101090235B9F11E
:1023B000080FAAD1204605B0BDE8F08F074685E793
:1023C0004FF0FF3098E7CB45EED1BBF1000FE6D1DF
:1023D0003A21304600F06BF80444E0E700F11007C2
:1023E00000F11309002417F8011B0A22304600F0FF
:1023F0009BF880462E21304600F059F8B9454044FC
:102400000444F0D10A22E97C304600F08DF80444FF
:10241000D0E7002B9AD1A9E7054B102210B504464E
:10242000036001750021043018F08AFD204610BDBC
:10243000E006060870B5074D8374056000259DF819
:102440001030057545608560C56001744274C374C1
:1024500070BD00BFE006060807B501210648FFF77A
:10246000DBFF002305481A4619460093FFF7E2FFF9
:1024700003B05DF804FB00BF7C2B0024942B0024E8
:1024800070B5044608460D4619F03AFA236802462C
:10249000294620465B68BDE87040184709B1FFF740
:1024A000EFBF0846704708B5FFF7F8FF08BD03689F
:1024B0001B6818470149FFF7E3BF00BFFA40060851
:1024C00038B50546FFF7EAFF04462846FFF7F2FF56
:1024D000204438BD70B58AB00D460023012A98BF4C
:1024E0000A220AA901F8043DB5FBF2F402FB1456D6
:1024F0002546F3B2092E94BF30333733DBB201F8EF
:10250000013D002CF0D1FFF7C9FF0AB070BD10B437
:102510002AB90368C9B25DF8044B1B681847D2B2E8
:102520005DF8044BFFF7D6BFFFF7F1BF00000000D6
:1025300070B52DED068B0A9D064643EC182BB4EEC4
:10254000488B002DB8BF0225F1EE10FA06D73C49A2
:10255000BDEC068BBDE87040FFF792BFB0EEC87BC4
:102560009FED316BB4EE467BF1EE10FA01DD35499B
:10257000EEE79FED2F7BB4EEC78BF1EE10FA02DD94
:1025800031493046E4E79FED2C7BB4EEC78BF1EE8A
:1025900010FAF5D4B5EEC08BF1EE10FA11D52D215D
:1025A000B1EE488BFFF783FF0446B6EE007B0023B5
:1025B000B2EE046BDAB20133AA4204DA87EE067B8C
:1025C000F8E70024F1E738EE078B0A223046BCEE2C
:1025D000C89B19EE101AFFF77DFF0444EDB1B8EE69
:1025E000499B1A493046B2EE04ABFFF749FF044459
:1025F00038EE498B15F1FF350FD328EE0A8B0A22EE
:102600003046BCEEC89B19EE101AFFF763FFB8EE18
:10261000499B044438EE498BECE7BDEC068B204621
:1026200070BD00BFAFF30080FFFFFFFFFFFFEF7F34
:10263000000000E0FFFFEF41000000E0FFFFEFC1FE
:10264000E4060608E8060608EC0606085E12060818
:1026500037B5069905460091FFF76AFF04462846FC
:10266000FFF728FF204403B030BD000010B500F094
:1026700067F80A4CFEF786F8FEF704FEFEF7F9FD50
:102680004FF4E1310648FFF751FDFDF7C5FEFDF7B8
:10269000ABFE002CFBD0AFF30080F8E70000000099
:1026A0003025002470B505460024074EFDF7A7FF2E
:1026B000E3B2984206D918461B010134F35EAB42DF
:1026C000F4D170BDFF20FCE71400002410B50446CF
:1026D000FDF795FF84423BBF2401024B4FF0FF30D2
:1026E000185F10BD1400002410B5044604F056FC19
:1026F000204610BD10B5044604F050FC204610BD25
:1027000007B50749684604F086FC4FF47A72002347
:10271000DDE9000115F06AFE03B05DF804FB00BFBF
:10272000B02B002407B50449684604F074FC0098F7
:1027300003B05DF804FB00BFC82B002409F026B8E5
:1027400008B5044804F034FC0348BDE8084004F030
:102750002FBC00BFC82B0024B02B002438B50A4C76
:102760000A4D204604F094FC2046094C2A460949AB
:1027700008F014FB204604F096FC2A462046064941
:10278000BDE8384008F00ABBC82B00240000002434
:10279000B02B0024F5260408E926040870B5044689
:1027A0000D46164600211C2218F0CAFB2046324670
:1027B000294606F0ABFC204670BD00002DE9F04133
:1027C00004460E46FDF71BFF84423CD21F4D2701F5
:1027D000EA19D06810B11C2108F066FD2046FFF709
:1027E00075FF80461C2008F02BFD044600211C22AA
:1027F00018F0A6FB4146204606F085FCEB19012E99
:10280000DC6010D006D3022E12D0204603F049FE21
:10281000022103E0204603F044FE00212046BDE8EB
:10282000F04103F04BBE2046BDE8F04103F02CBE62
:10283000204603F036FE0121F0E71C21204608F077
:1028400033FD15F081FABDE8F08100BF14000024CB
:1028500030B589B004460D46FFF724FFC0B2FF280B
:1028600004D02946FFF7AAFF09B030BD012D14D0CE
:102870000AD3022D1CD00222214601A8FFF78EFFA9
:1028800001A806F0DFFBEFE70022214601A8FFF7D1
:1028900085FF01A806F0D6FBE6E71C22002101A86F
:1028A00018F04EFB0022214601A806F031FCDBE7C0
:1028B0000122214601A8FFF771FF01A806F0C2FB23
:1028C000D2E700002DE9F34106460F46FDF797FEDB
:1028D00086422AD21B4D4FEA061805EB0802D4683F
:1028E000ACB93046FFF7F2FE06461C2008F0A8FC03
:1028F00004461C22002118F023FB0097002301222C
:102900003146204606F01DFC05EB0803DC600E4B4B
:102910000E491A46D3F894008842FBD123683FB190
:10292000A1680B604FF44073536102B0BDE8F081C1
:10293000E1681B04F5E71C21204608F0B5FC15F002
:1029400003FA00BF14000024006402580003008052
:1029500030B589B005460C46FFF7A4FEC0B2FF288B
:1029600004D02146FFF7AEFF09B030BD1C22002184
:1029700001A818F0E5FA294601A806F0DFFB094B8B
:1029800009491A46D3F894008842FBD1019B2CB127
:1029900003990B604FF440735361E5E71B040499FE
:1029A000F7E700BF00640258000300801EF0040F28
:1029B0000CBFEFF30880EFF30980816911F8021C66
:1029C000002932D101B590E80F10E047BDE8005072
:1029D0008CE80300244B93E80600914208BF70473F
:1029E0001A6041B91EF0100F10D1204B186820F06A
:1029F000010018600AE02CE9F00F1EF0100F08BF6C
:102A00002CED108A81F822E0C1F838C0906B92F862
:102A1000221061F0FF0E1EF0100F08BFB0EC108AFC
:102A2000B0E8F00F80F309887047114A13689942A3
:102A3000FAD801B552F821C00FC8E047BDE80050F0
:102A4000CCF80000704701B501F0D4FBBDE80140AF
:102A5000EFF3098CBEE701B501F090FBBDE8014042
:102A6000EFF3098CB6E70000480C002434EF00E0D7
:102A7000B8070608014608B530B96FF0030000F04A
:102A80001DFA6FF0030008BD132001F091FF30B96B
:102A90004FF0FF3000F012FA4FF0FF30F3E7002064
:102AA000F1E7000008B5EFF305832BB9EFF31083CE
:102AB00013B9EFF3118333B16FF0050000F0FEF9A5
:102AC0006FF0050008BDDFF808C000DFFAE700BFBF
:102AD000752A0408EFF310832BB9EFF31180003847
:102AE00018BF012070470120704710B520B103784E
:102AF000F32B01D1002906DA6FF0030102F02CFA62
:102B00006FF0030010BD00F10C0353E8000F20EA42
:102B1000010243E8002404B1F7E7F3E738B50546BE
:102B2000A0B1846802686CB114F0030302D1C168DB
:102B30000F2926D800246FF00801002002F00CFABB
:102B4000204638BDC368002BF4D11546104BD3F88E
:102B5000900078B100F087FC0446A0B10123F32275
:102B6000A3700023656022700A4AC4E90233084B4F
:102B70005A66E5E701221021D3F8800000F0FAFB45
:102B8000EAE71546EBE76FF0040102F0E5F9D7E755
:102B9000340C0024012C0408930710B502F0010442
:102BA00022D400F10C0384B153E8000F00EA0102C3
:102BB0008A4203D0BFF32F8F002005E020EA0102F4
:102BC00043E8002404B1EFE710BD53E8000F0842CA
:102BD00003D1BFF32F8F002005E020EA010243E874
:102BE000002404B1F1E7EFE7C06801EA00031CB17B
:102BF000994218BF0020E7E7002B08BF0020E3E759
:102C0000F8B50546846804B9F8BD94F82320284631
:102C1000616AA768FFF7C0FF064638B1204601F099
:102C200062FC00223146204601F0DCFD3C46EAE72A
:102C3000F8B50D4617461E46044620B10378F32B1F
:102C400001D1002907DA20466FF0030102F084F970
:102C50006FF00300F8BDFFF79FFF0028FAD186B19F
:102C60003146432001F0A4FE40B1074B20465E6987
:102C7000314601F01DFC756286F823706FF001008B
:102C8000E8E76FF00200E5E7340C002470B5054674
:102C900010B10378F32B07D028466FF0030102F040
:102CA0005BF96FF0030070BD836863B1284601F0E3
:102CB00011FC00226FF0020101F094FDA8680028C9
:102CC000F4D101F075FCAB78002613F001032E70EF
:102CD0000FD0094B2946D3F8904024B1204600F08C
:102CE000DCFB3046DFE7D3F8800000F078FB2046BD
:102CF000D9E71846D7E700BF340C00242DE9F0418E
:102D0000064620B10378F32B01D1002909DA6FF0D0
:102D100003056FF00301304602F01EF92846BDE8B6
:102D2000F08100F10C0353E8002F42EA010543E86B
:102D3000005000B1F7E7B4681CB9204601F038FC38
:102D4000ECE794F823203046616AD4F80880FFF756
:102D500023FF074678B194F823309B0756BF656A76
:102D6000054620EA0505204601F0BDFB0022394654
:102D7000204601F037FD4446DEE70000024608B574
:102D8000EFF3058333B100206FF0050102F0E4F8A2
:102D9000002008BDFFF79EFE0028F4D11046DFF8A2
:102DA00008C000DFF5E700BF1D2B0408024638B558
:102DB000EFF305834BB192B96FF003046FF0030199
:102DC000104602F0C9F8204638BDFFF783FE002800
:102DD000F1D11046DFF82CC000DF0446F3E713788A
:102DE000F32BE9D10029E7DB02F10C0353E8000FD4
:102DF00040EA010443E8004505B1F7E7104601F059
:102E000041FAE0E7FD2C0408024608B5EFF305831C
:102E100023B11046BDE80840FFF767BEFFF75AFE32
:102E20000028F6D11046DFF808C000DF08BD00BF5B
:102E3000EB2A040838B504461D46EFF3058343B179
:102E40008CB920466FF0030102F086F86FF00300A2
:102E500038BDFFF73FFE0028F2D120462B46DFF8B1
:102E600024C000DFF4E72378F32BEAD1002DE8D16A
:102E70000029E6DB2046FFF78FFE002808BF6FF031
:102E80000200E5E7312C0408024608B5EFF305839C
:102E90003BB110466FF0050102F05EF86FF00500DF
:102EA00008BDFFF717FE0028F3D11046DFF804C075
:102EB00000DFF5E78D2C0408704770477047EFF38B
:102EC00010832BB9EFF31180003818BF0120704731
:102ED00001207047064BDA6A3AB1D0695B6C1BB1CE
:102EE0001B69984228BF184670474FF0FF30F5E73E
:102EF000340C0024014BD868704700BF340C002408
:102F000008B5094B1A7A022A08D0032A0AD04FF0D2
:102F1000FF3002F015F84FF0FF3002E003220020EE
:102F20001A7208BD0120FCE7340C002470B5464C31
:102F3000237A012B00F0858033B14FF0FF3001F090
:102F4000FFFF4FF0FF3070BD404DEB68E3652B8A0B
:102F5000D5E90B61A4F85430AB683046236400F027
:102F6000F1F908B1C4F88060D5E90561304600F098
:102F7000E9F908B9D4F880606667D5E90761304699
:102F800000F0E0F908B9D4F88060A667D5E90961D6
:102F9000304600F0D7F908B9D4F88060E6676E6B68
:102FA0003EB131683046D6E9022300F03BFAC4F85E
:102FB0008460AE6B3EB131683046D6E9022300F042
:102FC00031FAC4F88860EE6B3EB131683046D6E91C
:102FD000022300F027FAC4F88C602E6C3EB13168F1
:102FE0003046D6E9022300F01DFAC4F890606E6CFA
:102FF0003EB131683046D6E9022300F013FAC4F836
:103000009460AE6C3EB131683046D6E9022300F0E0
:1030100009FAC4F89860EE6C3EB131683046D6E9E2
:10302000022300F0FFF9C4F89C602D6D3DB12968C2
:103030002846D5E9022300F0F5F9C4F8A050012391
:10304000237200207FE700BF340C002448070608E5
:1030500070B5254D2B7A012B07D06FF006004FF08D
:10306000FF3401F06DFF204670BD01F005FD10B981
:103070004FF0FF30F3E71D4AFF231D4E82F8223048
:1030800092F82230D26863F0FF031A49C2F3022299
:103090007068DB4314BFB3FA83F32023C3F120032A
:1030A000934298BF531CFE2202FA03F30F4ADBB28D
:1030B000D37701F0A1FF04460028D9D101F0F4FF35
:1030C000286101F0DDFF0C4801F004FA01F068FA14
:1030D0003368DB074CBF0223032383F31488BFF359
:1030E0006F8F02232B72BEE7340C002400ED00E04A
:1030F00048070608572A0408500C002408B50A4B54
:103100001A7A023A012A02D840B1012809D04FF0B8
:10311000FF3001F015FF4FF0FF3001E002221A727C
:1031200008BD0322FBE700BF340C002410B50F4C90
:10313000237A022B13D101F0ABFF01236372BFF39B
:103140004F8F0B4A5168C90003D54FF000615160A1
:10315000A37204232372BDE81040FFF7BBBE6FF0DB
:10316000070001F0EDFE002010BD00BF340C00246C
:1031700000ED00E038B51E4C0546237A042B35D10E
:10318000FFF7A8FEE26AA842034694BF00F1FF33AE
:103190002B4612B1D069C01AD061626C12B11069AD
:1031A000C01A1061E06803440544E360E368AB4281
:1031B00013D102230020237201F0FAF90023637275
:1031C000BFF34F8FA27A22B1A3724FF08052094B06
:1031D0005A60BDE8384001F053BF0133E36001F0AD
:1031E000A5F9236D002BE1D09847DFE738BD00BF7C
:1031F000340C002400ED00E0704738B504460D465D
:10320000FFF75AFE29462046BDE8384001F05ABE75
:1032100008B5FFF7F1FFEFF3058333B16FF0050059
:1032200001F08EFE6FF0050008BDFFF748FE002894
:10323000F4D1DFF808C000DFF6E700BF2D2F040847
:1032400008B5EFF3058333B16FF0050001F078FEA8
:103250006FF0050008BDFFF732FE0028F4D1DFF85B
:1032600008C000DFF6E700BF5130040808B5EFF3EF
:10327000058333B16FF0050001F062FE6FF00500C9
:1032800008BDFFF71CFE0028F4D1DFF808C000DFFE
:10329000F6E700BF012F0408024608B5EFF30583E7
:1032A00033B16FF0050001F04BFE6FF0050008BD73
:1032B000FFF705FE0028F4D11046DFF808C000DF54
:1032C000F5E700BFFD30040808B5EFF305832BB127
:1032D0006FF0050001F034FE002008BDFFF7EFFDA0
:1032E0000028F5D1DFF804C000DFF6E72D3104082F
:1032F000024608B5EFF305832BB16FF00500BDE87A
:10330000084001F01DBEFFF7DAFD0028F5D1104698
:10331000DFF804C000DF08BD7531040808B5EFF31D
:10332000058313B1054BD86808BDFFF7C8FD002819
:10333000F8D1DFF80CC000DFF6E700BF340C002442
:10334000F52E040810B598B140EA010313F0070305
:103350000ED117290AD90160083910220C184260D1
:1033600084600B5081684A60C3600123184610BD19
:103370000023FBE7F0B580B399B132F003032CD101
:103380000F3100F1080521F007072B462D685C6816
:10339000E91A24F00304091B8F4204D92968002983
:1033A000F3D10846F0BD46683A4304683E4446609F
:1033B000204450F8041C08388E4288BF4660586884
:1033C00018B903F108015A60EBE720F0030019185F
:1033D0001D504A6019600831E3E70021E1E730B58C
:1033E00090B1D9B1A1F1080500F108040022AC4266
:1033F0000BD151F8043C23F0030443681B1B4360CA
:1034000042B941F8042C012030BD236822463BB16B
:103410001C46ECE751F8083C1360F4E70846F3E774
:103420001846F1E730B5C0B189B1C2B1CBB10024C3
:103430000160C3604361C0E9014202FB01F41D1950
:1034400005611846013904D1A21A99500121084694
:1034500030BD851805602846F4E70146F7E71146B8
:10346000F5E71946F3E7034610B5A8B100F11402D9
:1034700052E8000F10B9BFF32F8F04E0016842E853
:10348000001404B1F4E738B1043353E8002F511CA1
:1034900043E8001404B1F8E710BD30B5F0B1C368DB
:1034A0008B421BD803698B4218D900F114031A68A8
:1034B0000A60BFF35F8F53E8002F0C689442F6D187
:1034C00043E8001505B1F2E7043050E8003F5A1E0A
:1034D00040E8002101B1F8E7002030BD6FF00300A3
:1034E000FBE7EFF310832BB9EFF31180003818BF1F
:1034F0000120704701207047036B30B5E3B1CD78F0
:103500000024DA78AA420FD31A46C1E901248AB10D
:103510009160A4B16160283050E8003F5A1C40E837
:10352000002101B1F8E730BD5A681C46002AECD0F2
:103530001346E6E7C162ECE7C1E90133C16201630A
:10354000E9E7D1E9013223B19A608A681AB1536080
:103550007047C262F9E703637047F8B5877804469D
:103560008FB3C5680027014605F10C062846FFF712
:10357000E8FF27703046FFF790FFAB68002B48D07C
:103580003046FFF770FF0446002842D0284600F07E
:10359000A1FF06463A46394601F024F9304600F0CC
:1035A000F5FF6A6A0646816804F10C0017F0CAFB51
:1035B000F923A7702370F368E37021462846BDE81D
:1035C000F840FFF799BF8568AB68002BF5D05B78B2
:1035D000832BF2D1284600F07DFF06463A46394655
:1035E00001F000F9304600F0D1FF06466A6A04F1A6
:1035F0000C01806817F0A6FBF3680BB1E2781A7033
:103600000023214605F10C002370BDE8F840FFF7C8
:1036100044BFF8BD2DE9F0410C46174698460546D3
:1036200018B10378FA2B00D141B928466FF0030195
:1036300001F0A8FC6FF00300BDE8F0818368C3B11E
:103640005B78832B15D100F045FF0646012200214F
:1036500001F0C8F8304600F099FF06466A6A214634
:10366000806817F06FFBF0680028E5D00770002035
:10367000E2E705F10C00FFF7F6FE064670B12146C1
:103680006A6A0C30002417F05DFBF92331462846A6
:103690003370B470F770FFF72FFFE8E7B8F1000F51
:1036A00010D04146932001F083F940B1074B2846E2
:1036B000596900F0FDFEEFF30983C3E902476FF09B
:1036C0000100B9E76FF00200B6E700BF340C002438
:1036D0002DE9F84F8846074638B131B1B0FA80F38A
:1036E000B1FA81F10B441F2B06DC6FF003010020BF
:1036F000002401F047FC70E008F1030626F0030601
:103700000C3606FB00F9F2B194683CB1A30702D174
:10371000D368332B05D86FF00801E8E7D368002B96
:10372000F9D1D2F800A0D2E904533DB115F0030B52
:1037300001D1994554D96FF00901D8E7002BFAD18E
:103740001CB19B460CE092461546274BD3F8A000CF
:10375000D8B1FFF788FE0446A0B14FF0010B35BB8E
:10376000214B00224946D86FFFF704FE0546C0B939
:10377000BBF1000F06D01C4B2146D3F8A00058B176
:10378000FFF78BFE6FF00401B1E701223421D3F87B
:103790008000FFF7EFFDDEE7D3F88000FFF71FFEA4
:1037A000F0E74BF0020B4A46002117F0C9FBFA2361
:1037B0003246394604F10C002370002384F802B02D
:1037C000A360C4F804A0C4E90983C4E90B332B4601
:1037D000FFF728FE044B054A1A672046BDE8F88F1C
:1037E000002CE4D1B1E700BF340C00245B350408A1
:1037F00000F1280310B553E8002F12B9BFF32F8F43
:1038000004E0511E43E8001404B1F4E70AB90020B3
:1038100010BDC06A01230028F9D0821CD2E84F1FD6
:10382000C2E8443F04B1F9E711F0FF0FF0D080681F
:10383000F1E700002DE9F0410F4615469846044691
:1038400018B10378FA2B00D141B920466FF003017B
:1038500001F098FB6FF00300BDE8F081FFF7C8FFAF
:10386000064600283AD001462046FFF76AFE626A03
:1038700006F10C01384617F065FA0DB1F3782B709C
:10388000002504F10C07314638463570FFF705FE78
:10389000A3680BB90020DFE73846FFF7E4FD0646D2
:1038A0000028F7D0204600F015FE074629460122E1
:1038B00000F098FF384600F069FE626A07468168AA
:1038C00006F10C0017F03EFAF923B570314633705B
:1038D0002046FB68F370FFF70FFEDBE7B8F1000F3F
:1038E00010D04146832001F063F840B1074B2046D9
:1038F000596900F0DDFDEFF30983C3E902756FF04C
:103900000100A9E76FF00200A6E700BF340C002415
:1039100008B5064B08219A6ED86EFFF7D9FE044B06
:10392000D864B0FA80F04009404208BD4807060854
:10393000340C00242DE9F04106460F4690461C4603
:10394000EFF305834BB196B930466FF0030101F0F8
:1039500019FB6FF00300BDE8F081FFF7C2FD0028FE
:10396000F1D130462346DFF848C000DFF3E7337873
:10397000FA2BE9D1002FE7D0002CE5D106F10C009D
:10398000FFF771FD054680B1726A39460C3017F0B9
:10399000D9F9F9232846AC702B7085F80380C5E966
:1039A000017600F06FFC2046D5E76FF00200D2E709
:1039B00015360408F8B504460F4616461D46EFF3C3
:1039C000058343B18CB920466FF0030101F0DAFAA8
:1039D0006FF00300F8BDFFF784FD0028F2D1204608
:1039E0002B46DFF844C000DFF4E72378FA2BEAD156
:1039F000002FE8D0002DE6D12046FFF7F9FE05465E
:103A000070B100F10C01626A384617F09BF90EB1F3
:103A1000EB7833702846EC6000F034FC0020D9E7E6
:103A20006FF00200D6E700BF35380408EFF31083CB
:103A30002BB9EFF31180003818BF01207047012027
:103A40007047000070B5A8B38468D0E900566CB127
:103A500014F0030302D1C2681B2A1AD800246FF0A5
:103A60000801002001F07EFA204670BDC368002BDB
:103A7000F4D1124BD3F8940030B901221C21D3F8B1
:103A80008000FFF777FC01E0FFF7EDFC044660B132
:103A90000123F522A3700023E6702270656023766F
:103AA000C4E90233C4E90433DEE76FF0040101F036
:103AB00059FAD9E705460646DBE700BF340C002477
:103AC000284B70B55D6904460E4635B96FF00701A5
:103AD00001F048FA4FF0FF3070BD10B10378F52BBC
:103AE00007D020466FF0030101F03CFA6FF00300AD
:103AF000F2E7037E53B9C0E90353EB6A436103B1B4
:103B000018610123EC6200202376E5E7C278D10733
:103B10000DD5C168A9420AD1FF2B06D16FF00F0164
:103B200001F020FA6FF00200D6E70133EBE7002E38
:103B3000F8D093070AD5E06895F9203090F9202055
:103B40009A4203DA80F8203000F0D6FC3146532048
:103B500000F02EFF18B12946204600F0A9FC6FF0B6
:103B60000100B9E7340C00242E4B5A6970B50446A5
:103B700032B96FF0070101F0F5F94FF0FF3070BD79
:103B800010B10378F52B07D020466FF0030101F048
:103B9000E9F96FF00300F2E7037E33B96FF00E012D
:103BA00001F0E0F96FF00200E9E7C168914202D04C
:103BB0006FF00D01F4E7013BDBB2037613BB436901
:103BC0000BB1016919612169F1B14B6192F92130A1
:103BD000D56ADDB982F82030A36883B1204600F0B1
:103BE00079FC06462A46294600F0FCFDF36AC4E942
:103BF0000365636103B11C610123F4622376002035
:103C000000F0D6FC0020BAE7D362DFE7E978890745
:103C100006D5A96821B191F920108B42B8BF0B4697
:103C20006D69D6E7340C002470B5044610B10378F2
:103C3000F52B07D020466FF0030101F093F96FF0E8
:103C4000030070BD037EBBB16369C0680BB122691C
:103C50001A61226902B3536190F92120C36AEBB95A
:103C600090F92030934203D080F8202000F044FCEB
:103C7000A068F8B900F09CFCA078002610F00100C4
:103C80002670DED0134B2146D3F89450DDB1284680
:103C9000FFF703FC3046D4E7C362DDE7D978890734
:103CA00006D5996821B191F920108A42B8BF0A4619
:103CB0005B69D4E7204600F00DFC00226FF00201A2
:103CC00000F090FDD4E7D3F88000FFF788FB28468A
:103CD000B7E700BF340C00242DE9F041044600266C
:103CE00001270CB9BDE8F081E378D4F814801B07F4
:103CF00012D5A36826767BB1204600F0EBFB0022AC
:103D00000546114600F06EFDEB6AC4E90356636197
:103D100003B11C61EC6227764446E2E710B4C37835
:103D20009B071DD5C06890F92120C36ADC78A407E1
:103D300009D59C688C4208BF8C6824B194F9204056
:103D4000A242B8BF22465B69002BEFD190F9203028
:103D5000934205D080F820205DF8044B00F0CCBBE6
:103D60005DF8044B70470000024608B5EFF3058389
:103D700033B100206FF0050101F0F4F8002008BD18
:103D8000FFF754FE0028F4D11046DFF808C000DF2A
:103D9000F5E700BF453A0408024608B5EFF305838E
:103DA0003BB110466FF0050101F0DCF86FF0050043
:103DB00008BDFFF73BFE0028F3D11046DFF804C032
:103DC00000DFF5E7C13A0408024608B5EFF30583C2
:103DD0003BB110466FF0050101F0C4F86FF005002B
:103DE00008BDFFF723FE0028F3D11046DFF804C01A
:103DF00000DFF5E7693B0408024608B5EFF30583E9
:103E00003BB110466FF0050101F0ACF86FF0050012
:103E100008BDFFF70BFE0028F3D11046DFF804C001
:103E200000DFF5E7293C0408EFF310832BB9EFF32B
:103E30001180003818BF01207047012070470C30F6
:103E4000D0E85F3F13B9BFF32F8F04E05A1EC0E8DC
:103E5000512F01B1F4E798B2003818BF0120704724
:103E600030B500F10C02C189D2E85F3F994202D817
:103E7000BFF32F8F04E05C1CC2E8554F05B1F3E798
:103E8000C0899BB2984294BF0020012030BD000041
:103E9000F8B515464FF6FE73421E06460F469A4287
:103EA00001D8884207D26FF003010024002001F0FE
:103EB0005FF82046F8BD7DB1AC682A6844B114F0C3
:103EC000030302D1E9680F2922D86FF00801ECE75B
:103ED000EB68002BF9D11546114BD3F8980080B14F
:103EE000FFF7C1FA0446A8B10123F622A37000230C
:103EF00065602270A3600B4A094BA781E6819A6630
:103F0000D7E701221021D3F88000FFF733FAE9E761
:103F10001546EAE76FF0040101F02AF8C9E700BF8F
:103F2000340C0024293F0408836810B504465BB1B3
:103F3000FFF785FF40B1204600F0CCFA0022BDE833
:103F40001040114600F04EBC10BD38B5054610B10A
:103F50000378F62B07D028466FF0030101F008F82C
:103F60006FF0030038BD84683CB100F0B3FA012261
:103F7000002100F037FC0020F4E7FFF771FF38B9AB
:103F800028466FF0100100F0F3FF6FF00200E9E740
:103F90002046E7E738B50D46044610B10378F62B06
:103FA00007D020466FF0030100F0E2FF6FF003003E
:103FB00038BDFFF744FF68B975B12946632000F0AA
:103FC000F7FC20B1064B2046596900F071FA6FF0FA
:103FD0000100EDE70020EBE76FF00200E8E700BF2B
:103FE000340C002470B5054610B10378F62B07D0C9
:103FF00028466FF0030100F0BBFF6FF0030070BDB7
:10400000836863B1284600F065FA00226FF0020170
:1040100000F0E8FBA8680028F4D100F0C9FAAB78FA
:10402000002613F001032E700FD0094B2946D3F858
:10403000984024B12046FFF730FA3046DFE7D3F846
:104040008000FFF7CCF92046D9E71846D7E700BF34
:10405000340C002410B50446EFF3058333B100207F
:104060006FF0050100F084FF002010BDFFF7DCFEBB
:104070000028F4D12046DFF808C000DFF5E700BFD4
:10408000913E0408024608B5EFF3058343B182B9B7
:1040900010466FF0030100F06BFF6FF0030008BDE6
:1040A000FFF7C2FE0028F2D11046DFF824C000DF7F
:1040B000F5E71378F62BEBD10029E9D11046FFF78D
:1040C000BEFE002814BF00206FF00200E7E700BF2B
:1040D000953F040810B50446EFF3058343B184B956
:1040E00020466FF0030100F043FF6FF0030010BDA6
:1040F000FFF79AFE0028F2D12046DFF830C000DF3B
:10410000F5E72378F62BEBD12046FFF7A9FE20B187
:10411000204600F0B7F80020E9E720466FF01001D4
:1041200000F026FF6FF00200E1E700BF4B3F0408FC
:10413000024608B5EFF305833BB110466FF0050169
:1041400000F016FF6FF0050008BDFFF76DFE0028B8
:10415000F3D11046DFF804C000DFF5E7E53F0408BF
:1041600010B5D0E85F3F5A1C914200D80022C0E849
:10417000542F04B1F5E798B210BD000038B51C4CBF
:1041800000F08CFFE3680133E36000F0CFF900201A
:1041900000F00EFA236D03B19847226C32B3A36985
:1041A000E16B994203D0D969E36301B9DA61DA6955
:1041B000C2B9237A022B19D1656ABDB1E36B95F9B7
:1041C000202093F920309A4210D1284600F08BF934
:1041D000E06B00F0A3F9284600F0E2F9236CE563F8
:1041E000EB6103E0013ADA61002AE2D038BD00BF9A
:1041F000340C002470B5224C04F1560504F15A0623
:10420000B4F85410D5E85F3F13B9BFF32F8F04E023
:104210005A1EC5E8502F00B1F4E79BB25BB330469D
:10422000FFF79EFFE36D53F8200020B30378F13BC6
:10423000082BE5D801A252F823F000BF6142040820
:1042400001420408674204080142040801420408CC
:104250006B4204086F4204080142040873420408D8
:10426000236E9847CCE7636EFBE7A36EF9E7E36E36
:10427000F7E7236FF5E70020BDE8704000F098B93C
:10428000340C002470B5164C0546B4F8541004F1F3
:104290005602D2E85F3F994202D8BFF32F8F04E065
:1042A000581CC2E8560F06B1F3E79BB2994205D8F5
:1042B00029460220BDE87040FEF79FBF04F1580078
:1042C000FFF74EFFE36D43F82050637A23B9054BA7
:1042D0004FF080525A6070BD0123A372FBE700BF0C
:1042E000340C002400ED00E0EFF310832BB9EFF362
:1042F0001180003818BF01207047012070470378F3
:10430000F12B00D07047C068F9E7000010B5C46910
:10431000621CD0E904310CD103B1596142691AB170
:1043200013610023436101E0074A13630023C36163
:1043300010BD1BB1DA6959612244DA614269002A71
:10434000EED1014AD362F1E7340C002401230A4A7A
:1043500090F9201043701C32936810B51BB193F98B
:1043600020408C4205DCC0E90232906003B1D86085
:1043700010BD1A469B68F1E7340C0024014B5869C4
:10438000704700BF340C002408B500F001FEDFF8D0
:1043900010C000DF4FF0FF31002000F0D7FDFEE736
:1043A0004D480408930710B502F0010422D400F12F
:1043B000280384B153E8000F00EA01028A4203D0C7
:1043C000BFF32F8F002005E020EA010243E800241C
:1043D00004B1EFE710BD53E8000F084203D1BFF36B
:1043E0002F8F002005E020EA010243E8002404B1F9
:1043F000F1E7EFE7806A01EA00031CB1994218BFB8
:104400000020E7E7002B08BF0020E3E7084A00216F
:10441000136B10B53BB94FF0FF34C0E90431C461F0
:1044200021B1086110BD19461B69F3E71063F9E774
:10443000340C0024002310B50380044683789A07C7
:1044400008D513F0100F016B0E4B0FD0D3F884007A
:10445000FFF723F8A378DB0712D50A4B2146D3F8E0
:10446000880038B1BDE81040FFF717B8586FFEF765
:10447000B6FFEFE7D3F88000BDE81040FEF7AFBF0E
:1044800010BD00BF340C0024C2780346D20701D40B
:10449000FFF7D0BF042242700022C260034A516B72
:1044A000816001B1C8605363704700BF340C0024C1
:1044B00091F92020836810B51BB193F920409442F4
:1044C00005DAC1E90230816003B1D96010BD184638
:1044D0009B68F1E783689A68826002B1D06000222D
:1044E0001846DA607047C2682AB18368936003B1E6
:1044F000DA600023C360704710B50146044664B11A
:104500002378F12B07D00846FFF7EDFF2046BDE8E2
:104510001040FFF7CDBFE468F1E710BD012301466D
:1045200043700148FFF7C4BF500C002438B5164D46
:10453000EC6A44B3E369013BE36123BB6378732B0B
:1045400006D009D8532B0BD003F0DF03432B0DD13A
:104550002046FFF7D4FE09E003F0EF03832BF6E7D4
:104560002046FFF7CCFE2146FFF7D8FB2046FFF799
:10457000BAFFFFF7D3FF246924B1E369002BDDD034
:1045800000236361EC6238BD340C002490F82230C3
:10459000826B13F0100F0CBF602020201044704776
:1045A00002234370014B9861704700BF340C002414
:1045B00070B5124D04462E7A696990B9022E0FD15A
:1045C0006C6A6CB194F9202091F920309A4207DD91
:1045D0002046FFF788FF0846FFF7B8FE6670AC611B
:1045E00070BD022E05D190F9202091F920309A4219
:1045F000F1DC2046BDE87040FFF790BF340C00248A
:104600002DE9F04F85B08146029128B96FF0030182
:10461000002400F09BFCBCE0002A45D0966846B11F
:10462000B40702D1D368432B06D86FF008010020ED
:10463000EEE7D368002BF8D19769D2E904453CB185
:10464000600702D1002D40F0B2806FF00A01EEE762
:104650002FB17B1E372B03D96FF00B01E7E718272B
:10466000002D40F0A880D2E900A301934EBB574B28
:10467000D3F88800F0B1FEF7F6FE064600283AD0DF
:104680004FF00108002C44D1DFF840B1E5B9504AA1
:10469000DBF88400556DB8B1FEF7E5FE0246E0B1E7
:1046A00048F01008344623E0924614461827154671
:1046B0000192DCE701224421D3F88000FEF75AFE84
:1046C000DBE74FF00008DDE722462946DBF87400FF
:1046D000FEF750FE02460028E4D1B8F1000F16D0D4
:1046E000DBF8882052B110463146FEF7D6FE002294
:1046F00048F002087CB96FF0040198E73146DBF816
:1047000080000392FEF76BFE039A1446F0E74246E0
:10471000EEE72246344640F2F1137FB2FD2184F8E1
:1047200002802380019BC4F804A0E370002384F876
:10473000207084F8217061846563C4E90233C4E9A0
:104740000433C4E90633C4E90933C4E90B32A5F1E3
:1047500040031344C4E90E391E4B13601C4B1B6805
:104760005B071AD4A36B00201A4603F1340143F807
:10477000040B9942FBD1184B2046C2E90D394FF08A
:104780008073D363029B1362104B144A1A66FFF7BF
:104790000FFF204605B0BDE8F08FAD084FF0CC33D9
:1047A000113D002DDED0013D42F8043FF9E7002F16
:1047B0007FF44FAF182769077FF447AFA5F1480191
:1047C000074B99427FF64FAF3FE700BF340C002400
:1047D00048070608A52E5AE2894304080948040838
:1047E000B7FFFF7F38B504461546FFF7CFFE0160DF
:1047F0002046FFF78BFD1DB1BDE83840FFF7D8BE5E
:10480000BDE83840FFF78ABE10B543780446332B25
:104810000CD1416A90F82320FFF7C4FD014628B16E
:1048200020460022BDE81040FFF7DCBF10BD10B5E8
:104830000446806918B100221146FFF7D3FF637860
:10484000232B02BFA36800229A6110BD70B50F4CE4
:10485000267A022E18D1636AB3B16569E86AFFF758
:104860003BFA2846FFF7E3FF04F11C00FFF732FE96
:104870004670A061EFF30983AB63002328466361B0
:10488000BDE87040FFF700BE70BD00BF340C0024CF
:1048900010B5044610B10378F12B07D020466FF015
:1048A000030100F053FB6FF0030010BD437803F0E9
:1048B0000F03022B1ED0032B2BD0012B2ED1FFF781
:1048C00012FEE06AFFF708FA2046FFF7B0FF6178B2
:1048D000022926D11548FFF7FDFD154B417098615F
:1048E000EFF30982A26300225A612046FFF7CCFD54
:1048F0000020DAE70E4B1A7A022A02D15B6A002BFB
:10490000DFD16FF00201204600F020FB6FF00200C3
:10491000CBE7FFF7E8FDFFF7F9FCD2E76FF0020104
:10492000F2E70020FFF744FEDFE700BF500C002451
:10493000340C002470B5044620B10378F12B01D16A
:10494000002908DA6FF003056FF003012046FEF737
:10495000B4FA284670BD4378042B06D16FF00201EB
:104960006FF00205FEF7A9FAF3E700F1280353E818
:10497000002F42EA010543E8005606B1F7E7437805
:10498000332BE6D1416A90F82320FFF70BFD014657
:104990000028DED094F8233001229B0756BF656AB9
:1049A000054620EA05052046FFF71CFFD1E7000079
:1049B00038B5174C0246237A022B27D1606A60B1C2
:1049C00060694B1C427009D1FFF720FD1148FFF7C9
:1049D00081FD02234370A061012038BDE36A0022FB
:1049E00013B1DD69A9420BD2C161C0E904325AB1E9
:1049F0001061002BEAD0DA695861511AD961E5E7F4
:104A00001A46491B1B69EBE7E062F2E70020E4E786
:104A1000340C0024500C0024F8B5164B05460F4604
:104A200016465C693CB920466FF00701FEF745FA6F
:104A30004FF0FF30F8BD002807DA20466FF0030181
:104A4000FEF73BFA6FF00300F4E70A460146204602
:104A5000FFF7A8FC0028EDD14EB131463320656246
:104A600084F82370FFF7A4FF6FF00100E2E76FF016
:104A70000200DFE7340C002438B50D4C00210D484E
:104A8000A26DFFF7BDFD0C4D636EA8625BB1984748
:104A900058B9E26DE96C206EFFF7B2FDA8640038EA
:104AA00018BF012038BD0120FCE70020FAE700BF55
:104AB00048070608BD4E0408340C002410B504460F
:104AC000EFF3058333B100206FF0050100F03EFAEB
:104AD000002010BDFFF708FC0028F4D12046DFF8C5
:104AE00008C000DFF5E700BF0146040808B5EFF392
:104AF000058313B1054B586908BDFFF7F5FB002886
:104B0000F8D1DFF80CC000DFF6E700BF340C00245A
:104B10007D43040810B5044600F046FAEFF3058320
:104B20003BB120466FF0050100F010FA6FF0050070
:104B300010BDFFF7D9FB0028F3D12046DFF804C0F1
:104B400000DFF5E791480408024638B5EFF3058326
:104B50004BB192B96FF003046FF003011046FEF7FA
:104B6000ACF9204638BDFFF7BFFB0028F1D1104655
:104B7000DFF844C000DF0446F3E71378F12BE9D1F6
:104B80000029E7DB5378042B07D16FF002011046B0
:104B90006FF00204FEF791F9E3E702F1280353E80E
:104BA000000F40EA010443E8004505B1F7E710466D
:104BB000FFF768FBD5E700BF3549040810B5044688
:104BC000EFF305833BB100206FF00501FEF775F9A7
:104BD0006FF0050010BDFFF787FB0028F3D12046DA
:104BE000DFF804C000DFF5E7194A04080C4A30B5C5
:104BF000536C002413B11D698D420AD90161C0E9CB
:104C000002431BB11D699860691A19612CB1E060FB
:104C100030BD1C46491BDB68ECE75064F8E700BF79
:104C2000340C00242DE9F041184D6C6C54B3236909
:104C300001276E69013B2361236913BBE3680BB154
:104C4000A2689A606B64002304F11801E86C1A46AC
:104C5000FEF770FE58B121460320D5E905836B614C
:104C6000FEF7CBFA6B6913B9B04508BF0026E378AD
:104C7000012B09D161692046FFF7B8FF6C6C002C4D
:104C8000DAD16E61BDE8F0816770F7E7340C00247B
:104C900008B5FEF73DFE18B9034B044A1A6508BD76
:104CA0004FF0FF30FBE700BF340C0024254C040814
:104CB000044607B54FF0FF33002269462046FEF751
:104CC00079FE0028F6D1DDE900309847F2E70000D0
:104CD00008B5094A094B1A60094B9B1A094A136027
:104CE000094A0A4B1A600A4B9B1A0A4A136000F0E1
:104CF00051F800F083F800BF00FC072414340024AE
:104D00000000082410340024F8F60024544600243F
:104D100000FC07245046002438B50E480B250E4BE6
:104D20001C24456003600D4BC4608360FFF71CF8D2
:104D30000B4B18600B480C4BC460C0E900350B4BA3
:104D40008360FFF711F80A4B1860BDE8384015F092
:104D5000F7BB00BFE03300241C080608F43300242E
:104D6000F0330024B033002429080608C43300249B
:104D7000C0330024FDF77ABC024B4FF0FF311868B6
:104D8000FFF70AB8F0330024014B1868FFF71CB88E
:104D9000F033002408B504F099FC0C4B0C499868DA
:104DA0004FF00053C21802F16042126843F8042B1E
:104DB0008B42F7D1054B4FF000529A6011F020F969
:104DC00012F0B4FABDE8084000F015B800ED00E0BC
:104DD000980200207047704708B500F043F8FFF7CD
:104DE000F9FFFFF799FFFFF7F6FF05F087FDBDE834
:104DF0000840FFF7BFBFFEF70BBA0000114C124B83
:104E000023614FF4004363614423E3600F4BA360CD
:104E10001823A3610E4B07B5224600210D482360DD
:104E2000FFF74CFE034628B922460B4900900B4879
:104E300005F074FDFEF704FA002309491A460093B1
:104E4000F5E700BFA8D50024A85500241834002495
:104E500043080608D94D0408480806081D010180CA
:104E6000640806081FB5064B6C460FCB84E80F009C
:104E70002046FEF779FF034B186004B010BD00BF59
:104E80007C080608A055002473B506460C46154656
:104E900005F036FD58B90634324628462ABF054B80
:104EA000054953F824100023009305F037FD02B0A4
:104EB00070BD00BF400A06089409060808B500F056
:104EC000F7F80000002307B5421E00930023042AD0
:104ED00019D8DFE802F003080C10140001220C4975
:104EE0000C4805F01BFD02220B490C48F9E7032290
:104EF0000B490C48F5E704220B490C48F1E7052261
:104F00000B490C48EDE702460B490C48E9E700BFA6
:104F10008C08060825010280AD08060826010280DB
:104F2000D208060827010280070906082801028026
:104F3000420906082A01028082090608000102804F
:104F40000146014AFFF7A0BF31010180014AFFF786
:104F50009BBF00BF32010180014AFFF795BF00BF30
:104F600037010180014AFFF78FBF00BF3301018085
:104F700011F1110F02D0024AFFF786BF704700BF40
:104F800034010180014AFFF77FBF00BF3801018073
:104F900010B5FFF7ABFD034B1B6813B1BDE8104024
:104FA000184710BD5C340024024B1B6803B118473E
:104FB000704700BF5C340024024B987A003818BF59
:104FC00001207047340C002408B5FEF77DF900225B
:104FD000064905F0B1FDC31C04D98B2204490548DC
:104FE00005F004FABDE80840FEF782B9B94F04089D
:104FF0007B0A06088D0A0608B0F57A7F10B50C46C4
:1050000004D0322219491A4805F0F0F904F0A4FE40
:105010000028184A16DB00F16043F02103F56143D4
:1050200083F80013916800F1100341F82340BFF3A7
:105030004F8F926852F823309C420AD03F220B498E
:105040000D48E1E700F00F03F021043B134419760B
:10505000E8E7002808DB0123420900F01F0003FAFB
:1050600000F0064B43F82200002010BD7B0A060822
:10507000BA0A060800ED00E0C70A060800E100E0F1
:1050800008B505F0E1FCBDE8084004F090BF000061
:10509000014B186804F0C0BF80450024014B18681C
:1050A00004F07CBF8045002408B504F055FE08BD1F
:1050B000024C08B523689847FCE700BFD80C0024D1
:1050C0000C30704703680BB108461847704710B59D
:1050D0000446FCF7C7FE204610BD08B5FCF7A0FF4C
:1050E00008BD0000044B0022C3E901221A611A60C6
:1050F000024ADA60704700BF60340024C5500408DB
:1051000010B50022034600F1110403F8012B03F847
:10511000012B9C42FBD1418210BD000042F60211DE
:10512000024808B5FFF7ECFF08BD00BF7434002447
:1051300008B5FBF7B6FB08BD10B50446FCF792FEB8
:10514000204610BD08B5FFF7C8FF08BDD0E9003202
:10515000096812F0010F01EB620005D010B4541081
:105160000A595DF8044BD35818470146043008B576
:10517000FFF7ECFF08BD0000034A0346C26007C901
:1051800083E80700704700BFF40A060810B588B02E
:10519000059108A902AC019001E90C0005A984E879
:1051A0000C00FFF7E9FF019808B010BD37B56C4659
:1051B000054684E80C0094E80C00FFF7E7FF28465A
:1051C00003B030BD08B5FFF7D0FF08BD08B5FFF745
:1051D000F9FF08BD0068704710B50446FBF70AFAEE
:1051E000204610BD10B50446FBF704FA204610BD5A
:1051F00010B504460021FCF785FA204610BD08B51D
:10520000FFF75EFF0068003818BF012008BD884224
:1052100038B5044606D00D46FBF7ECF92046294682
:10522000FCF720FE204638BD884238B5044606D03B
:105230000D46FBF7DFF920462946FCF713FE204612
:1052400038BD08B5FFF73CFF0068003818BF0120E3
:1052500008BD10B504460021FCF754FA204610BDE5
:1052600070B504460D46FFF7CAFF28B940F2022286
:105270000649074805F0BAF8E068FFF7ABFF294692
:1052800003462046BDE87040184700BF240B0608BF
:10529000B005060808B5FFF7E3FF08BD70B5044682
:1052A0000D46FFF7CEFF28B940F202220649074813
:1052B00005F09CF8E068FFF78DFF2946034620467D
:1052C000BDE87040184700BF240B0608B00506086B
:1052D00008B5FFF7E3FF08BD10B5044606F004FA71
:1052E000204610BD10B5084C204606F0BDF900233D
:1052F0002046064A84F8243023630549C4E90A336A
:10530000BDE8104005F04ABD8834002400000024A8
:10531000D95204080268814B9A422DE9F04393B0B8
:1053200040F0F9800EF0BAFD05F058F97C4A0023F0
:10533000C2F88430BFF34F8F536923F48033536135
:10534000BFF34F8FD2F8803043F6E074C3F3C90047
:10535000C3F34E335B0103EA0406014646EA817556
:105360000139C2F87452F9D2203B13F1200FF2D167
:10537000BFF34F8FBFF36F8F05F046F9694B0126DE
:105380000025D3F8E0204FF400470DA9664842F00D
:1053900001024FF0300902244FF00308C3F8E02067
:1053A000D3F8E02002F001020192019AD3F8E02044
:1053B00042F00402C3F8E020D3F8E02002F0040237
:1053C0000292029AD3F8E02042F04002C3F8E020B3
:1053D000D3F8E02002F040020392039AD3F8D820D9
:1053E00042F40042C3F8D820D3F8D82002F4004297
:1053F0000492049AD3F8D82042F48032C3F8D8201B
:10540000D3F8D82002F480320592059AD3F8D82038
:1054100042F40032C3F8D820D3F8D82002F4003286
:105420000692069AD3F8E02042F40072C3F8E02016
:10543000D3F8E03003F400730793079BCDE90D76B2
:10544000CDE90F5509F0E8FC0DA93848CDF83490A6
:1054500009F0E2FC32461021344809F0C3FD32461F
:105460002021324809F0BEFD0DA931480E960D9459
:105470000F9509F0D1FC324621462D4809F0B2FDC6
:10548000192008F0EBFA39462A46274809F0AAFD08
:10549000642008F0E3FA32463946234809F0A2FDB9
:1054A0000B274FF4605308A922480A95CDE9083428
:1054B000CDE90B8709F0B0FC08A91C480C97CDE991
:1054C0000844CDE90A5809F0A7FC08A917480C9729
:1054D000CDE90894CDE90A4809F09EFC802308A98B
:1054E00013480C97CDE90834CDE90A6809F094FC1B
:1054F000042308A90E480C97CDE90834CDE90A48E1
:1055000009F08AFC08A90A480C97CDE90844CDE9BE
:105510000A5809F081FC13B0BDE8F0830080024016
:1055200000ED00E000440258002402580008025830
:10553000000002580018025830B570B1CC6864B150
:105540008A6852B10B6943B10D6849688560C160D2
:105550008361C0E90424002030BD4FF0FF30FBE739
:1055600073B5002346680446019366B1A369984762
:105570000546A3699847431BB3F5FA6FF9D9012390
:105580000025636027E0836803B198472023002546
:105590002360636901AA12213046984700281DDB69
:1055A000019B03F01F03B3421AD100252660206837
:1055B0001F2833D87DB923694FF400422946984704
:1055C00000282EDB636901AA294620689847002835
:1055D0000ADA6FF00405284602B070BD6FF00405CA
:1055E0000136202ED5D1E2E7A36998470646019BF4
:1055F0001B0402D4002DB9D0EDE7A3699847801BA6
:10560000B0F5FA7F07D8636901AA0021206898479E
:105610000028ECDADDE76FF00105E8E76FF002053E
:10562000D9E76FF00305D6E737B50025436904468F
:1056300001AA0121006801959847A84203DA6FF09A
:10564000040003B030BD636901AA012120689847B6
:105650000028F4DB019B5B072CD5636901AA29466E
:10566000206898470028EADB019BDD040ED403F490
:105670000452B2F5045F01D10220E2E7980401D59B
:105680000320DEE7D90513D50420DAE7636901AA10
:105690001F21206898470028D1DB019BDA040BD535
:1056A00003F01C03182BE7D0082BE9D0142BEBD008
:1056B0000520C6E70120C4E70620C2E740F2DC501F
:1056C0007047002070470620704770477047C0F849
:1056D0006C117047002070470FF0A8BCF0B500F5C2
:1056E00082779FB006460D46384605F0C5FF782202
:1056F0000021684615F024FC00226B462C4611461A
:105700000CB30A2911D10024184A1949022004F0C7
:105710005BF9AB7B012B02D9284600F087FD3846A8
:1057200005F0C8FF20461FB0F0BD606818606089B2
:105730000244586009B143F8043C246804B99C60F1
:1057400001310C33DCE70B49301D4A603222C1F8CD
:1057500008D008F0B7FE034628B1074A02200449E2
:1057600004F032F9D5E70124D3E700BF2F0B060878
:10577000560B0608E43400245B0B0608032A08468F
:10578000024928BF032215F0DDBA00BFBF11060889
:1057900008B5044A0820044904F016F9BDE8084099
:1057A00005F010BA830B0608560B060810B5064C18
:1057B00006492046FFF7C0FE2046FFF7D1FEB0FAAB
:1057C00080F0400910BD00BFC4340024DC0C00246C
:1057D0000148FFF729BF00BFC43400240238032862
:1057E00015D8DFE800F0020A0C114FF400530B60EB
:1057F0004FF480430120136070470023F7E74FF414
:1058000000530B600023F5E700230B60F2E7002054
:10581000704708B500F0F2FA08BD000030B5051D6C
:1058200085B000230C46284601A9009308F022FF0A
:1058300048B96946284608F068FF38B1184A02207E
:10584000184904F0C1F84FF0FF3026E0284608F070
:1058500079FF0099002911DD019B03F01F020A4422
:10586000BFF34F8F10481A44C0F85C322033D11A6E
:105870000029F9DCBFF34F8FBFF36F8F4FF4C17274
:10588000BDF80010002000F003FD206028B1BDF835
:105890000020019900F082FD002005B030BD00BF5E
:1058A0008E0B0608560B060800ED00E03D20002296
:1058B000072108B508F072F93D20BDE8084008F05E
:1058C0009FB90020704700000022064B1B68027041
:1058D000802243714270E12282701A0CC2701A0A4F
:1058E0000271704700E8F11F10B50446FFF7E9FFA9
:1058F00020B92046BDE81040FFF7E6BF10BD00000C
:1059000070B586B0044608F09DF92F492F4B02ADC3
:10591000012604342846ADF80860CDE903134FF0A2
:105920008073059308F0B0F940F201132848ADF8F0
:105930000830284BCDE903034FF480332846059304
:1059400008F0A2F9042008F08DF9234B28462360C3
:10595000FFF7CAFF214B656008202361204B2672A8
:10596000E36040F2F4531F4A63610A231E49009327
:10597000042304F029F8204609F03CF9054600BB51
:105980001A4E01463022301D15F0DAFA2123336019
:105990004FF44033C6E90453154E294601353246CB
:1059A0000023204606F5BF6608F0FAFC042DF4D16A
:1059B000104A08200C4904F007F8FFF7F7FE06B07C
:1059C00070BD0020FBE700BF0000043009000003A9
:1059D000004004300D00000300800240000004304D
:1059E00000010430B90B0608560B0608E434002405
:1059F00000040430D30B0608084608B5FFF774FF0F
:105A0000012008BD002307B51A4602490248009349
:105A100004F084FFED0B060805001180002307B594
:105A20001A4602490248009304F078FF210C060848
:105A30000500118038B50D4B00250446036000F5C4
:105A4000827040F8485C05F00FFE04F5947005F094
:105A50000BFE04F5A670FFF7FCFB04F5AE70FFF734
:105A6000C7FB2046C4F8705138BD00BFBC0C060807
:105A700010B50B4C2378BFF35B8FDB070ED42046A9
:105A800005F09CF950B10748FFF7D4FF204605F018
:105A9000B7F9054A0549034805F080F9014810BDEA
:105AA000BC3400241835002400000024095B0408DD
:105AB00037B50D4604460192FFF7DAFF019B2A46EF
:105AC0002146043008F028FF003818BF012040426A
:105AD00003B030BD37B50D4604460192FFF7C8FF4D
